{
  "contractName": "RentalManager",
  "abi": [
    {
      "inputs": [],
      "stateMutability": "nonpayable",
      "type": "constructor"
    },
    {
      "anonymous": false,
      "inputs": [
        {
          "indexed": true,
          "internalType": "uint256",
          "name": "id",
          "type": "uint256"
        },
        {
          "indexed": true,
          "internalType": "address",
          "name": "owner",
          "type": "address"
        },
        {
          "indexed": true,
          "internalType": "address",
          "name": "tenant",
          "type": "address"
        },
        {
          "indexed": false,
          "internalType": "uint256",
          "name": "rentAmount",
          "type": "uint256"
        },
        {
          "indexed": false,
          "internalType": "uint256",
          "name": "durationMonths",
          "type": "uint256"
        }
      ],
      "name": "ContractCreated",
      "type": "event"
    },
    {
      "anonymous": false,
      "inputs": [
        {
          "indexed": true,
          "internalType": "uint256",
          "name": "id",
          "type": "uint256"
        }
      ],
      "name": "ContractExpired",
      "type": "event"
    },
    {
      "anonymous": false,
      "inputs": [
        {
          "indexed": true,
          "internalType": "uint256",
          "name": "id",
          "type": "uint256"
        },
        {
          "indexed": true,
          "internalType": "address",
          "name": "tenant",
          "type": "address"
        }
      ],
      "name": "ContractSigned",
      "type": "event"
    },
    {
      "anonymous": false,
      "inputs": [
        {
          "indexed": true,
          "internalType": "uint256",
          "name": "id",
          "type": "uint256"
        }
      ],
      "name": "ContractTerminated",
      "type": "event"
    },
    {
      "anonymous": false,
      "inputs": [
        {
          "indexed": true,
          "internalType": "uint256",
          "name": "id",
          "type": "uint256"
        },
        {
          "indexed": true,
          "internalType": "address",
          "name": "tenant",
          "type": "address"
        },
        {
          "indexed": false,
          "internalType": "uint256",
          "name": "amount",
          "type": "uint256"
        },
        {
          "indexed": false,
          "internalType": "uint256",
          "name": "timestamp",
          "type": "uint256"
        }
      ],
      "name": "PaymentMade",
      "type": "event"
    },
    {
      "inputs": [],
      "name": "admin",
      "outputs": [
        {
          "internalType": "address",
          "name": "",
          "type": "address"
        }
      ],
      "stateMutability": "view",
      "type": "function",
      "constant": true
    },
    {
      "inputs": [],
      "name": "contractCount",
      "outputs": [
        {
          "internalType": "uint256",
          "name": "",
          "type": "uint256"
        }
      ],
      "stateMutability": "view",
      "type": "function",
      "constant": true
    },
    {
      "inputs": [
        {
          "internalType": "uint256",
          "name": "",
          "type": "uint256"
        }
      ],
      "name": "contracts",
      "outputs": [
        {
          "internalType": "uint256",
          "name": "id",
          "type": "uint256"
        },
        {
          "internalType": "address payable",
          "name": "owner",
          "type": "address"
        },
        {
          "internalType": "address payable",
          "name": "tenant",
          "type": "address"
        },
        {
          "internalType": "uint256",
          "name": "rentAmount",
          "type": "uint256"
        },
        {
          "internalType": "uint256",
          "name": "startDate",
          "type": "uint256"
        },
        {
          "internalType": "uint256",
          "name": "durationMonths",
          "type": "uint256"
        },
        {
          "internalType": "uint256",
          "name": "endDate",
          "type": "uint256"
        },
        {
          "internalType": "enum RentalManager.ContractStatus",
          "name": "status",
          "type": "uint8"
        },
        {
          "internalType": "bool",
          "name": "tenantSigned",
          "type": "bool"
        },
        {
          "internalType": "uint256",
          "name": "totalPaid",
          "type": "uint256"
        },
        {
          "internalType": "string",
          "name": "propertyAddress",
          "type": "string"
        }
      ],
      "stateMutability": "view",
      "type": "function",
      "constant": true
    },
    {
      "inputs": [
        {
          "internalType": "address",
          "name": "",
          "type": "address"
        },
        {
          "internalType": "uint256",
          "name": "",
          "type": "uint256"
        }
      ],
      "name": "ownerContracts",
      "outputs": [
        {
          "internalType": "uint256",
          "name": "",
          "type": "uint256"
        }
      ],
      "stateMutability": "view",
      "type": "function",
      "constant": true
    },
    {
      "inputs": [
        {
          "internalType": "uint256",
          "name": "",
          "type": "uint256"
        },
        {
          "internalType": "uint256",
          "name": "",
          "type": "uint256"
        }
      ],
      "name": "payments",
      "outputs": [
        {
          "internalType": "uint256",
          "name": "contractId",
          "type": "uint256"
        },
        {
          "internalType": "address",
          "name": "payer",
          "type": "address"
        },
        {
          "internalType": "uint256",
          "name": "amount",
          "type": "uint256"
        },
        {
          "internalType": "uint256",
          "name": "timestamp",
          "type": "uint256"
        }
      ],
      "stateMutability": "view",
      "type": "function",
      "constant": true
    },
    {
      "inputs": [
        {
          "internalType": "address",
          "name": "",
          "type": "address"
        },
        {
          "internalType": "uint256",
          "name": "",
          "type": "uint256"
        }
      ],
      "name": "tenantContracts",
      "outputs": [
        {
          "internalType": "uint256",
          "name": "",
          "type": "uint256"
        }
      ],
      "stateMutability": "view",
      "type": "function",
      "constant": true
    },
    {
      "inputs": [
        {
          "internalType": "address payable",
          "name": "_tenant",
          "type": "address"
        },
        {
          "internalType": "uint256",
          "name": "_rentAmount",
          "type": "uint256"
        },
        {
          "internalType": "uint256",
          "name": "_durationMonths",
          "type": "uint256"
        },
        {
          "internalType": "string",
          "name": "_propertyAddress",
          "type": "string"
        }
      ],
      "name": "createContract",
      "outputs": [
        {
          "internalType": "uint256",
          "name": "",
          "type": "uint256"
        }
      ],
      "stateMutability": "nonpayable",
      "type": "function"
    },
    {
      "inputs": [
        {
          "internalType": "uint256",
          "name": "_contractId",
          "type": "uint256"
        }
      ],
      "name": "signContract",
      "outputs": [],
      "stateMutability": "nonpayable",
      "type": "function"
    },
    {
      "inputs": [
        {
          "internalType": "uint256",
          "name": "_contractId",
          "type": "uint256"
        }
      ],
      "name": "payRent",
      "outputs": [],
      "stateMutability": "payable",
      "type": "function",
      "payable": true
    },
    {
      "inputs": [
        {
          "internalType": "uint256",
          "name": "_contractId",
          "type": "uint256"
        }
      ],
      "name": "terminateContract",
      "outputs": [],
      "stateMutability": "nonpayable",
      "type": "function"
    },
    {
      "inputs": [
        {
          "internalType": "uint256",
          "name": "_contractId",
          "type": "uint256"
        }
      ],
      "name": "checkAndUpdateExpiry",
      "outputs": [],
      "stateMutability": "nonpayable",
      "type": "function"
    },
    {
      "inputs": [
        {
          "internalType": "uint256",
          "name": "_contractId",
          "type": "uint256"
        }
      ],
      "name": "getPayments",
      "outputs": [
        {
          "components": [
            {
              "internalType": "uint256",
              "name": "contractId",
              "type": "uint256"
            },
            {
              "internalType": "address",
              "name": "payer",
              "type": "address"
            },
            {
              "internalType": "uint256",
              "name": "amount",
              "type": "uint256"
            },
            {
              "internalType": "uint256",
              "name": "timestamp",
              "type": "uint256"
            }
          ],
          "internalType": "struct RentalManager.Payment[]",
          "name": "",
          "type": "tuple[]"
        }
      ],
      "stateMutability": "view",
      "type": "function",
      "constant": true
    },
    {
      "inputs": [
        {
          "internalType": "address",
          "name": "_owner",
          "type": "address"
        }
      ],
      "name": "getOwnerContracts",
      "outputs": [
        {
          "internalType": "uint256[]",
          "name": "",
          "type": "uint256[]"
        }
      ],
      "stateMutability": "view",
      "type": "function",
      "constant": true
    },
    {
      "inputs": [
        {
          "internalType": "address",
          "name": "_tenant",
          "type": "address"
        }
      ],
      "name": "getTenantContracts",
      "outputs": [
        {
          "internalType": "uint256[]",
          "name": "",
          "type": "uint256[]"
        }
      ],
      "stateMutability": "view",
      "type": "function",
      "constant": true
    },
    {
      "inputs": [
        {
          "internalType": "uint256",
          "name": "_contractId",
          "type": "uint256"
        }
      ],
      "name": "getContract",
      "outputs": [
        {
          "components": [
            {
              "internalType": "uint256",
              "name": "id",
              "type": "uint256"
            },
            {
              "internalType": "address payable",
              "name": "owner",
              "type": "address"
            },
            {
              "internalType": "address payable",
              "name": "tenant",
              "type": "address"
            },
            {
              "internalType": "uint256",
              "name": "rentAmount",
              "type": "uint256"
            },
            {
              "internalType": "uint256",
              "name": "startDate",
              "type": "uint256"
            },
            {
              "internalType": "uint256",
              "name": "durationMonths",
              "type": "uint256"
            },
            {
              "internalType": "uint256",
              "name": "endDate",
              "type": "uint256"
            },
            {
              "internalType": "enum RentalManager.ContractStatus",
              "name": "status",
              "type": "uint8"
            },
            {
              "internalType": "bool",
              "name": "tenantSigned",
              "type": "bool"
            },
            {
              "internalType": "uint256",
              "name": "totalPaid",
              "type": "uint256"
            },
            {
              "internalType": "string",
              "name": "propertyAddress",
              "type": "string"
            }
          ],
          "internalType": "struct RentalManager.RentalContract",
          "name": "",
          "type": "tuple"
        }
      ],
      "stateMutability": "view",
      "type": "function",
      "constant": true
    }
  ],
  "bytecode": "0x608060405234801561001057600080fd5b50600080546001600160a01b03191633179055611878806100326000396000f3fe6080604052600436106100e85760003560e01c80638736381a1161008a578063ba528b7111610059578063ba528b71146102b1578063d9e8843f146102d1578063f851a440146102e4578063fe3651991461031c57600080fd5b80638736381a1461023b5780638a765f5c146102515780639537e8d114610271578063b4ce40491461029157600080fd5b8063474da79a116100c6578063474da79a1461018a578063628a014c146101c15780636d906411146101e15780636ebc8c861461020e57600080fd5b806322f765b5146100ed578063263e3d5d146101205780632655bd7314610142575b600080fd5b3480156100f957600080fd5b5061010d610108366004611288565b610349565b6040519081526020015b60405180910390f35b34801561012c57600080fd5b5061014061013b3660046112b4565b61037a565b005b34801561014e57600080fd5b5061016261015d3660046112cd565b6104f1565b604080519485526001600160a01b039093166020850152918301526060820152608001610117565b34801561019657600080fd5b506101aa6101a53660046112b4565b610540565b6040516101179b9a9998979695949392919061136d565b3480156101cd57600080fd5b5061010d6101dc3660046113ea565b610635565b3480156101ed57600080fd5b506102016101fc366004611480565b610a0a565b60405161011791906114a4565b34801561021a57600080fd5b5061022e6102293660046112b4565b610a76565b60405161011791906114e8565b34801561024757600080fd5b5061010d60015481565b34801561025d57600080fd5b5061014061026c3660046112b4565b610c0d565b34801561027d57600080fd5b5061014061028c3660046112b4565b610cba565b34801561029d57600080fd5b506102016102ac366004611480565b610e26565b3480156102bd57600080fd5b5061010d6102cc366004611288565b610e90565b6101406102df3660046112b4565b610eac565b3480156102f057600080fd5b50600054610304906001600160a01b031681565b6040516001600160a01b039091168152602001610117565b34801561032857600080fd5b5061033c6103373660046112b4565b611132565b60405161011791906115a5565b6005602052816000526040600020818154811061036557600080fd5b90600052602060002001600091509150505481565b6000546001600160a01b031633146103ea5760405162461bcd60e51b815260206004820152602860248201527f5365756c206c2761646d696e2070657574206566666563747565722063657474604482015267329030b1ba34b7b760c11b60648201526084015b60405180910390fd5b806000811180156103fd57506001548111155b6104195760405162461bcd60e51b81526004016103e190611612565b60008281526002602052604090206001600782015460ff166003811115610442576104426112ef565b148061046657506000600782015460ff166003811115610464576104646112ef565b145b6104b25760405162461bcd60e51b815260206004820152601e60248201527f436f6e747261742064656a61207465726d696e65206f7520657870697265000060448201526064016103e1565b60078101805460ff1916600317905560405183907f5760684a9ae00ee4a9ccadd1b4cc0c9bc48ff36d7c91399445204ca23ec1885790600090a2505050565b6003602052816000526040600020818154811061050d57600080fd5b600091825260209091206004909102018054600182015460028301546003909301549194506001600160a01b0316925084565b60026020819052600091825260409091208054600182015492820154600383015460048401546005850154600686015460078701546008880154600989018054989a6001600160a01b039081169a981698969795969495939460ff80851695610100909504169391906105b29061163e565b80601f01602080910402602001604051908101604052809291908181526020018280546105de9061163e565b801561062b5780601f106106005761010080835404028352916020019161062b565b820191906000526020600020905b81548152906001019060200180831161060e57829003601f168201915b505050505090508b565b60006001600160a01b03861661068d5760405162461bcd60e51b815260206004820152601a60248201527f41647265737365206c6f6361746169726520696e76616c69646500000000000060448201526064016103e1565b336001600160a01b038716036106ff5760405162461bcd60e51b815260206004820152603160248201527f50726f707269657461697265206574206c6f6361746169726520646f6976656e60448201527074206574726520646966666572656e747360781b60648201526084016103e1565b6000851161074f5760405162461bcd60e51b815260206004820152601d60248201527f4c6f79657220646f69742065747265207375706572696575722061203000000060448201526064016103e1565b600084118015610760575060788411155b6107ac5760405162461bcd60e51b815260206004820152601b60248201527f447572656520696e76616c6964652028312d313230206d6f697329000000000060448201526064016103e1565b600180549060006107bc83611688565b90915550600090506107d18562278d006116a1565b6107db90426116be565b90506040518061016001604052806001548152602001336001600160a01b03168152602001886001600160a01b031681526020018781526020014281526020018681526020018281526020016000600381111561083a5761083a6112ef565b81526020016000151581526020016000815260200185858080601f016020809104026020016040519081016040528093929190818152602001838380828437600092018290525093909452505060018054825260026020818152604093849020865181559086015181840180546001600160a01b03199081166001600160a01b039384161790915594870151928201805490951692169190911790925560608401516003808401919091556080850151600484015560a0850151600584015560c0850151600684015560e08501516007840180549495509093909260ff1990911691849081111561092d5761092d6112ef565b02179055506101008281015160078301805461ff0019169115159092021790556101208201516008820155610140820151600982019061096d9082611735565b50503360008181526004602090815260408083206001805482548083018455928652848620909201919091556001600160a01b038d16808552600584528285208254815480850183559187529585902001949094555481518c81529283018b90529294507fbbe4a5a0ae86296b0b7baf33c5c830adb7141bb861f487c78269d7ed92ece0bd910160405180910390a4505060015495945050505050565b6001600160a01b038116600090815260056020908152604091829020805483518184028101840190945280845260609392830182828015610a6a57602002820191906000526020600020905b815481526020019060010190808311610a56575b50505050509050919050565b610a7e6111f5565b81600081118015610a9157506001548111155b610aad5760405162461bcd60e51b81526004016103e190611612565b6000838152600260208181526040928390208351610160810185528154815260018201546001600160a01b03908116938201939093529281015490911692820192909252600380830154606083015260048301546080830152600583015460a0830152600683015460c0830152600783015491929160e084019160ff90911690811115610b3c57610b3c6112ef565b6003811115610b4d57610b4d6112ef565b81526007820154610100900460ff161515602082015260088201546040820152600982018054606090920191610b829061163e565b80601f0160208091040260200160405190810160405280929190818152602001828054610bae9061163e565b8015610bfb5780601f10610bd057610100808354040283529160200191610bfb565b820191906000526020600020905b815481529060010190602001808311610bde57829003601f168201915b50505050508152505091505b50919050565b80600081118015610c2057506001548111155b610c3c5760405162461bcd60e51b81526004016103e190611612565b60008281526002602052604090206001600782015460ff166003811115610c6557610c656112ef565b148015610c755750806006015442115b15610cb55760078101805460ff1916600217905560405183907f9325fbfd991d20e53f36adfe94b443a61b400da1d2fa18bc3c8dd6744c10a0fa90600090a25b505050565b80600081118015610ccd57506001548111155b610ce95760405162461bcd60e51b81526004016103e190611612565b6000828152600260208190526040909120015482906001600160a01b03163314610d255760405162461bcd60e51b81526004016103e1906117f5565b600083815260026020526040812090600782015460ff166003811115610d4d57610d4d6112ef565b14610d935760405162461bcd60e51b8152602060048201526016602482015275436f6e74726174206e6f6e20656e20617474656e746560501b60448201526064016103e1565b6007810154610100900460ff1615610de25760405162461bcd60e51b8152602060048201526012602482015271436f6e747261742064656a61207369676e6560701b60448201526064016103e1565b60078101805461ffff1916610101179055604051339085907fcd3b1fcca80f9caae633c3e13546995d3810e561957af92839f070c46571942c90600090a350505050565b6001600160a01b038116600090815260046020908152604091829020805483518184028101840190945280845260609392830182828015610a6a5760200282019190600052602060002090815481526020019060010190808311610a565750505050509050919050565b6004602052816000526040600020818154811061036557600080fd5b80600081118015610ebf57506001548111155b610edb5760405162461bcd60e51b81526004016103e190611612565b6000828152600260208190526040909120015482906001600160a01b03163314610f175760405162461bcd60e51b81526004016103e1906117f5565b60008381526002602052604090206001600782015460ff166003811115610f4057610f406112ef565b14610f815760405162461bcd60e51b815260206004820152601160248201527021b7b73a3930ba103737b71030b1ba34b360791b60448201526064016103e1565b80600301543414610fd45760405162461bcd60e51b815260206004820152601a60248201527f4d6f6e74616e74206475206c6f79657220696e636f727265637400000000000060448201526064016103e1565b80600601544211156110195760405162461bcd60e51b815260206004820152600e60248201526d436f6e747261742065787069726560901b60448201526064016103e1565b60018101546040516001600160a01b03909116903480156108fc02916000818181858888f19350505050158015611054573d6000803e3d6000fd5b503481600801600082825461106991906116be565b90915550506000848152600360208181526040808420815160808101835289815233818501818152348386018181524260608601818152875460018082018a55988d529b8a902096516004909c029096019a8b559251958a0180546001600160a01b0319166001600160a01b03909716969096179095559351600289015591519690950195909555815190815291820193909352909186917fc65404633dd8ca3eaa91445ad9c825c60c158e04c83dcf2fc9067e8d13035f24910160405180910390a350505050565b60608160008111801561114757506001548111155b6111635760405162461bcd60e51b81526004016103e190611612565b600083815260036020908152604080832080548251818502810185019093528083529193909284015b828210156111e95760008481526020908190206040805160808101825260048602909201805483526001808201546001600160a01b031684860152600282015492840192909252600301546060830152908352909201910161118c565b50505050915050919050565b6040518061016001604052806000815260200160006001600160a01b0316815260200160006001600160a01b031681526020016000815260200160008152602001600081526020016000815260200160006003811115611257576112576112ef565b8152600060208201819052604082015260609081015290565b6001600160a01b038116811461128557600080fd5b50565b6000806040838503121561129b57600080fd5b82356112a681611270565b946020939093013593505050565b6000602082840312156112c657600080fd5b5035919050565b600080604083850312156112e057600080fd5b50508035926020909101359150565b634e487b7160e01b600052602160045260246000fd5b6004811061132357634e487b7160e01b600052602160045260246000fd5b9052565b6000815180845260005b8181101561134d57602081850181015186830182015201611331565b506000602082860101526020601f19601f83011685010191505092915050565b8b81526001600160a01b038b811660208301528a166040820152606081018990526080810188905260a0810187905260c0810186905260006101606113b560e0840188611305565b85151561010084015284610120840152806101408401526113d881840185611327565b9e9d5050505050505050505050505050565b60008060008060006080868803121561140257600080fd5b853561140d81611270565b94506020860135935060408601359250606086013567ffffffffffffffff8082111561143857600080fd5b818801915088601f83011261144c57600080fd5b81358181111561145b57600080fd5b89602082850101111561146d57600080fd5b9699959850939650602001949392505050565b60006020828403121561149257600080fd5b813561149d81611270565b9392505050565b6020808252825182820181905260009190848201906040850190845b818110156114dc578351835292840192918401916001016114c0565b50909695505050505050565b60208152815160208201526000602083015161150f60408401826001600160a01b03169052565b5060408301516001600160a01b03811660608401525060608301516080830152608083015160a083015260a083015160c083015260c083015160e083015260e083015161010061156181850183611305565b84015190506101206115768482018315159052565b8401516101408481019190915284015161016080850152905061159d610180840182611327565b949350505050565b602080825282518282018190526000919060409081850190868401855b8281101561160557815180518552868101516001600160a01b031687860152858101518686015260609081015190850152608090930192908501906001016115c2565b5091979650505050505050565b60208082526012908201527110dbdb9d1c985d081a5b995e1a5cdd185b9d60721b604082015260600190565b600181811c9082168061165257607f821691505b602082108103610c0757634e487b7160e01b600052602260045260246000fd5b634e487b7160e01b600052601160045260246000fd5b60006001820161169a5761169a611672565b5060010190565b80820281158282048414176116b8576116b8611672565b92915050565b808201808211156116b8576116b8611672565b634e487b7160e01b600052604160045260246000fd5b601f821115610cb557600081815260208120601f850160051c8101602086101561170e5750805b601f850160051c820191505b8181101561172d5782815560010161171a565b505050505050565b815167ffffffffffffffff81111561174f5761174f6116d1565b6117638161175d845461163e565b846116e7565b602080601f83116001811461179857600084156117805750858301515b600019600386901b1c1916600185901b17855561172d565b600085815260208120601f198616915b828110156117c7578886015182559484019460019091019084016117a8565b50858210156117e55787850151600019600388901b60f8161c191681555b5050505050600190811b01905550565b6020808252602d908201527f5365756c206c65206c6f6361746169726520706575742065666665637475657260408201526c1031b2ba3a329030b1ba34b7b760991b60608201526080019056fea2646970667358221220a81e413e8d7fa08663665c1f0b8d74ed0a981edd9d3e3d8485d479b240176dfa64736f6c63430008130033",
  "immutableReferences": {},
  "source": "// SPDX-License-Identifier: MIT\npragma solidity ^0.8.19;\n\n/**\n * @title RentalManager\n * @notice Système de Gestion des Contrats de Location Immobilière via Blockchain\n * @dev Groupe 5 - Ghassat Maha, Ben-achour Oussama, Alaoui Belghiti Niema\n */\ncontract RentalManager {\n\n    address public admin;\n\n    enum ContractStatus { Pending, Active, Expired, Terminated }\n\n    struct RentalContract {\n        uint256 id;\n        address payable owner;\n        address payable tenant;\n        uint256 rentAmount;       // in wei\n        uint256 startDate;        // timestamp\n        uint256 durationMonths;   // number of months\n        uint256 endDate;          // timestamp\n        ContractStatus status;\n        bool tenantSigned;\n        uint256 totalPaid;\n        string propertyAddress;  // description du bien\n    }\n\n    struct Payment {\n        uint256 contractId;\n        address payer;\n        uint256 amount;\n        uint256 timestamp;\n    }\n\n    uint256 public contractCount;\n\n    mapping(uint256 => RentalContract) public contracts;\n    mapping(uint256 => Payment[]) public payments;\n    mapping(address => uint256[]) public ownerContracts;\n    mapping(address => uint256[]) public tenantContracts;\n\n    /* ─── Events ─── */\n    event ContractCreated(\n        uint256 indexed id,\n        address indexed owner,\n        address indexed tenant,\n        uint256 rentAmount,\n        uint256 durationMonths\n    );\n    event ContractSigned(uint256 indexed id, address indexed tenant);\n    event PaymentMade(uint256 indexed id, address indexed tenant, uint256 amount, uint256 timestamp);\n    event ContractExpired(uint256 indexed id);\n    event ContractTerminated(uint256 indexed id);\n\n    /* ─── Modifiers ─── */\n    modifier onlyAdmin() {\n        require(msg.sender == admin, \"Seul l'admin peut effectuer cette action\");\n        _;\n    }\n\n    modifier onlyContractOwner(uint256 _id) {\n        require(contracts[_id].owner == msg.sender, \"Seul le proprietaire peut effectuer cette action\");\n        _;\n    }\n\n    modifier onlyContractTenant(uint256 _id) {\n        require(contracts[_id].tenant == msg.sender, \"Seul le locataire peut effectuer cette action\");\n        _;\n    }\n\n    modifier contractExists(uint256 _id) {\n        require(_id > 0 && _id <= contractCount, \"Contrat inexistant\");\n        _;\n    }\n\n    /* ─── Constructor ─── */\n    constructor() {\n        admin = msg.sender;\n    }\n\n    /* ─── Owner Functions ─── */\n\n    /**\n     * @notice Crée un nouveau contrat de location\n     */\n    function createContract(\n        address payable _tenant,\n        uint256 _rentAmount,\n        uint256 _durationMonths,\n        string calldata _propertyAddress\n    ) external returns (uint256) {\n        require(_tenant != address(0), \"Adresse locataire invalide\");\n        require(_tenant != msg.sender, \"Proprietaire et locataire doivent etre differents\");\n        require(_rentAmount > 0, \"Loyer doit etre superieur a 0\");\n        require(_durationMonths > 0 && _durationMonths <= 120, \"Duree invalide (1-120 mois)\");\n\n        contractCount++;\n        uint256 _endDate = block.timestamp + (_durationMonths * 30 days);\n\n        contracts[contractCount] = RentalContract({\n            id: contractCount,\n            owner: payable(msg.sender),\n            tenant: _tenant,\n            rentAmount: _rentAmount,\n            startDate: block.timestamp,\n            durationMonths: _durationMonths,\n            endDate: _endDate,\n            status: ContractStatus.Pending,\n            tenantSigned: false,\n            totalPaid: 0,\n            propertyAddress: _propertyAddress\n        });\n\n        ownerContracts[msg.sender].push(contractCount);\n        tenantContracts[_tenant].push(contractCount);\n\n        emit ContractCreated(contractCount, msg.sender, _tenant, _rentAmount, _durationMonths);\n        return contractCount;\n    }\n\n    /* ─── Tenant Functions ─── */\n\n    /**\n     * @notice Le locataire signe le contrat pour l'activer\n     */\n    function signContract(uint256 _contractId)\n        external\n        contractExists(_contractId)\n        onlyContractTenant(_contractId)\n    {\n        RentalContract storage c = contracts[_contractId];\n        require(c.status == ContractStatus.Pending, \"Contrat non en attente\");\n        require(!c.tenantSigned, \"Contrat deja signe\");\n\n        c.tenantSigned = true;\n        c.status = ContractStatus.Active;\n\n        emit ContractSigned(_contractId, msg.sender);\n    }\n\n    /**\n     * @notice Le locataire effectue le paiement du loyer\n     */\n    function payRent(uint256 _contractId)\n        external\n        payable\n        contractExists(_contractId)\n        onlyContractTenant(_contractId)\n    {\n        RentalContract storage c = contracts[_contractId];\n        require(c.status == ContractStatus.Active, \"Contrat non actif\");\n        require(msg.value == c.rentAmount, \"Montant du loyer incorrect\");\n        require(block.timestamp <= c.endDate, \"Contrat expire\");\n\n        c.owner.transfer(msg.value);\n        c.totalPaid += msg.value;\n\n        payments[_contractId].push(Payment({\n            contractId: _contractId,\n            payer: msg.sender,\n            amount: msg.value,\n            timestamp: block.timestamp\n        }));\n\n        emit PaymentMade(_contractId, msg.sender, msg.value, block.timestamp);\n    }\n\n    /* ─── Admin Functions ─── */\n\n    /**\n     * @notice L'admin peut résilier un contrat en cas de litige\n     */\n    function terminateContract(uint256 _contractId)\n        external\n        onlyAdmin\n        contractExists(_contractId)\n    {\n        RentalContract storage c = contracts[_contractId];\n        require(\n            c.status == ContractStatus.Active || c.status == ContractStatus.Pending,\n            \"Contrat deja termine ou expire\"\n        );\n        c.status = ContractStatus.Terminated;\n        emit ContractTerminated(_contractId);\n    }\n\n    /* ─── Public / View Functions ─── */\n\n    /**\n     * @notice Met à jour le statut si le contrat est expiré\n     */\n    function checkAndUpdateExpiry(uint256 _contractId)\n        external\n        contractExists(_contractId)\n    {\n        RentalContract storage c = contracts[_contractId];\n        if (c.status == ContractStatus.Active && block.timestamp > c.endDate) {\n            c.status = ContractStatus.Expired;\n            emit ContractExpired(_contractId);\n        }\n    }\n\n    /**\n     * @notice Retourne tous les paiements d'un contrat\n     */\n    function getPayments(uint256 _contractId)\n        external\n        view\n        contractExists(_contractId)\n        returns (Payment[] memory)\n    {\n        return payments[_contractId];\n    }\n\n    /**\n     * @notice Retourne les IDs des contrats d'un propriétaire\n     */\n    function getOwnerContracts(address _owner) external view returns (uint256[] memory) {\n        return ownerContracts[_owner];\n    }\n\n    /**\n     * @notice Retourne les IDs des contrats d'un locataire\n     */\n    function getTenantContracts(address _tenant) external view returns (uint256[] memory) {\n        return tenantContracts[_tenant];\n    }\n\n    /**\n     * @notice Retourne les détails complets d'un contrat\n     */\n    function getContract(uint256 _contractId)\n        external\n        view\n        contractExists(_contractId)\n        returns (RentalContract memory)\n    {\n        return contracts[_contractId];\n    }\n}\n",
  "sourcePath": "C:\\CLI_Blockchain\\cli\\contracts\\RentalManager.sol",
  "compiler": {
    "name": "solc",
    "version": "0.8.19+commit.7dd6d404.Emscripten.clang"
  },
  "schemaVersion": "3.4.16",
  "updatedAt": "2026-04-21T14:12:16.758Z",
  "networkType": "ethereum",
  "devdoc": {
    "details": "Groupe 5 - Ghassat Maha, Ben-achour Oussama, Alaoui Belghiti Niema",
    "kind": "dev",
    "methods": {},
    "title": "RentalManager",
    "version": 1
  },
  "userdoc": {
    "kind": "user",
    "methods": {
      "checkAndUpdateExpiry(uint256)": {
        "notice": "Met à jour le statut si le contrat est expiré"
      },
      "createContract(address,uint256,uint256,string)": {
        "notice": "Crée un nouveau contrat de location"
      },
      "getContract(uint256)": {
        "notice": "Retourne les détails complets d'un contrat"
      },
      "getOwnerContracts(address)": {
        "notice": "Retourne les IDs des contrats d'un propriétaire"
      },
      "getPayments(uint256)": {
        "notice": "Retourne tous les paiements d'un contrat"
      },
      "getTenantContracts(address)": {
        "notice": "Retourne les IDs des contrats d'un locataire"
      },
      "payRent(uint256)": {
        "notice": "Le locataire effectue le paiement du loyer"
      },
      "signContract(uint256)": {
        "notice": "Le locataire signe le contrat pour l'activer"
      },
      "terminateContract(uint256)": {
        "notice": "L'admin peut résilier un contrat en cas de litige"
      }
    },
    "notice": "Système de Gestion des Contrats de Location Immobilière via Blockchain",
    "version": 1
  }
}